:020000040800F2
:1000000008080020DD010008AF2B000805240008C7
:10001000AD2B0008C5080008313F000800000000B3
:10002000000000000000000000000000812D00081A
:10003000C909000800000000512C0008832D0008A9
:10004000F7010008F7010008F7010008F7010008B0
:10005000F7010008F7010008F7010008F7010008A0
:10006000F7010008F7010008F7010008F701000890
:10007000F7010008F7010008F7010008F701000880
:10008000F7010008F7010008F7010008F701000870
:10009000F7010008F7010008F7010008F701000860
:1000A000F7010008F7010008F7010008F701000850
:1000B000F7010008F7010008F7010008F701000840
:1000C000F7010008F7010008F7010008F701000830
:1000D000F7010008F7010008253F0008F7010008B4
:1000E000F7010008F7010008F7010008F701000810
:1000F000392E0008F7010008F7010008F701000891
:10010000F7010008F7010008F7010008F7010008EF
:10011000F7010008F7010008F7010008F7010008DF
:10012000F7010008F7010008F7010008F7010008CF
:10013000F70100080000000000000000F7010008BF
:10014000F7010008F7010008F7010008F7010008AF
:10015000F7010008F7010008F7010008F70100089F
:10016000F7010008F7010008F7010008F70100088F
:10017000F7010008F7010008F7010008000000007F
:1001800000000000F701000800000000000000006F
:10019000F70100080000000000000000F70100085F
:1001A000000000000000000000000000F70100084F
:1001B000F7010008F7010008F7010008F70100083F
:1001C000F7010008DFF810D000F058FB00480047A6
:1001D000554E0008AFF3008008080020064880470D
:1001E00006480047FEE7FEE7FEE7FEE7FEE7FEE71C
:1001F000FEE7FEE7FEE7FEE71D2E0008C50100084A
:100200002DE9F05F0546002092469B46884606464B
:10021000814640241BE0284641464746224600F0DE
:10022000F3F853465A46C01A914110D31146184666
:10023000224600F0DAF82D1A67EB01084F462246F5
:100240000120002100F0D1F817EB00094E41201EDB
:10025000A4F10104DFDC484631462A464346BDE8A6
:10026000F09FD2B201E000F8012B491EFBD270478B
:100270000022F6E710B513460A4604461946FFF772
:10028000F0FF204610BD2DE9FE4F81EA030404F083
:10029000004421F0004100944FF0000B23F0004394
:1002A00050EA01045ED052EA03045BD0C3F30A545F
:1002B000C1F30A552C44A4F2F3340194A0FB025478
:1002C000C1F3130141F48011C3F3130343F480130A
:1002D00001FB024400FB034E840A970A44EA81545E
:1002E00047EA8357A4FB076802958D0A05FB07853B
:1002F0004FEA932C04FB0C542705029D4FEA065845
:1003000047EA1637B5EB08056EEB070C870E920E21
:1003100047EA811742EA8312A7FB0201B6EB0B0101
:1003200064EB00042B0D43EA0C335E1844EB1C50C5
:10033000DA465146E7FB0201C5F313044FEA0B33DB
:1003400043EA14534FEA0432019C43EA0603A4F142
:100350000C040294009CCDE900B400F0ABF803B0AB
:10036000BDE8F08F00200146F9E70EB5C10F80EA25
:10037000E0700844CA07002140F233438DE80E00C4
:100380000A460B4600F096F803B000BD00F00042AC
:1003900030F000400AD0C10D01F56071C0F31600C5
:1003A00042EA0151C208400711437047002001464C
:1003B000704701F0004330B421F0004150EA0102DF
:1003C00006D00A0DA2F56072C1F31301002A02DC07
:1003D00030BC00207047440F44EAC104C100E0185B
:1003E00030BC00EBC25000F01FB8202A04DB203ADA
:1003F00000FA02F1002070479140C2F1200320FA78
:1004000003F3194390407047202A04DB203A21FA75
:1004100002F00021704721FA02F3D040C2F120021D
:1004200091400843194670470029A8BF7047401CF7
:10043000490008BF20F00100704710B4B0FA80FCFA
:1004400000FA0CF050EA010404BF10BC704749B137
:10045000CCF1200421FA04F411FA0CF118BF0121A7
:1004600021430843A3EB0C01CB1D4FEA00614FEA87
:10047000102042BF002010BC704700EBC350104456
:100480000029A4BF10BC7047401C490008BF20F0E1
:10049000010010BC704710B5141E73F1000408DA97
:1004A000401C41F1000192185B411A4301D120F038
:1004B000010010BD2DE9F04D92469B4611B1B1FAF5
:1004C00081F202E0B0FA80F220329046FFF78DFF11
:1004D00004460F4640EA0A0041EA0B0153465A46D9
:1004E000084313D0114653EA010019D0C8F1400265
:1004F0005046FFF789FF05460E465046594642468C
:10050000FFF773FF084305D0012004E02046394679
:10051000BDE8F08D0020054346EAE0762C433743E2
:100520000A986305E40AA0EB08000022FD0A44EAE9
:1005300047540A3002D500200146E9E701051019A9
:100540006941DDE9084500196941BDE8F04DA2E7C0
:100550002DE9FE4F804681EA0300C00F0C46009053
:1005600021F0004123F00045B8EB0200A94105D27B
:100570004046214690461C460B46024623F000406A
:10058000104347D0270DC7F30A00C3F30A51029066
:10059000401A019040286BDAC3F3130040F4801B2B
:1005A0000098924620B10023D2EB030A63EB0B0BB9
:1005B00001985946C0F140025046FFF716FF064623
:1005C0000D4650465946019A00F06AF910EB0800B2
:1005D0006141002487EA115284EAE7731A4340D04C
:1005E000009A62B3019A012A4FEA075215DC001BF8
:1005F00061EB02014FF0004202EA0752CDE90042EE
:10060000001C41F5801132462B46FFF753FF03B023
:10061000BDE8F08F40462146F9E7001B61EB02017F
:10062000001C41F5801300185B412018A2F500174B
:1006300047EB030140EAD570B6196D4111E06D0832
:100640004FEA360645EAC0754FEA0752001B61EBD8
:100650000201001C41F5801149084FEA30000019E1
:10066000514132462B4603B0BDE8F04FFFF713BFB0
:100670000098012240000023D0EB020263EBE073FC
:10068000009821464FEAE074B8EB000061EB0401EA
:10069000E9E783F000435BE781F0004158E72DE98B
:1006A000F04D81EA030404F0004B21F000451446AC
:1006B0004FF0000A23F0004150EA050220D054EA2E
:1006C00001021DD0C5F30A570246C5F31303C1F357
:1006D0001300C1F30A5640F4801543F48013A7EBCE
:1006E0000608101BD64608F2FD3873EB050002D34E
:1006F00008F1010801E092185B41B8F1000F03DA3C
:1007000000200146BDE8F08D00204FF48011064620
:1007100084460EE0171B73EB050705D3121B63EB32
:10072000050306434CEA010C49084FEA30009218D1
:100730005B4150EA0107EDD152EA030012D082EA90
:10074000040083EA0501084305D0101BAB4106D223
:100750000122002306E000224FF0004302E06FF088
:10076000010253101AEB06004CEB085110EB0A0083
:1007700041EB0B01BDE8F04DFFF78DBE70B521F0E8
:10078000004303430CD0C1F30A550024D5EB040504
:1007900064EB0403D617AD1AB34102DB0020014617
:1007A00070BD201841EB025170BD2DE9F04D0023C2
:1007B0001A461B1A8A4103DB00200146BDE8F08D72
:1007C000C1F30A52C1F3130141F480154FF0000B3D
:1007D000D10702D100186D41521E0027044640F295
:1007E000FF11384601EB620A3E4680460246002071
:1007F0004FF48011FFF708FEC2197141BB1846EB98
:100800000100B4EB030C75EB000C04D3E41A65EBA8
:10081000000517460E46241908F101006D41804677
:100820003428E3DDF91946EB0600091BA84103D281
:100830004FF0FF32134601E0002213461BEB070086
:1008400046EB0A51BDE8F04DFFF725BE30B5041E5A
:1008500071F1000404DB4FF00044404264EB0101FD
:10086000141E73F1000405DB1C464FF00043524296
:1008700063EB0403994208BF904230BD064C074D1C
:1008800006E0E06840F0010394E807009847103460
:10089000AC42F6D3FFF79AFCF485000814860008F2
:1008A000202A06DBCB17203A41FA02F043EAE07334
:1008B00006E041FA02F3D040C2F120029140084321
:1008C00019467047FEE7000070B502F085F902F0A6
:1008D000A1F9052000F07AF802F094F940F2EE2038
:1008E00000F074F802F096F902F062F900244FF477
:1008F00080750D4E07E0641C3C2C01DD002070BDAE
:10090000012000F063F82946304600F0FFFB002884
:10091000F1D1C4F5F07402F05FF920B200F056F89E
:1009200002F078F9012070BD000802402DE9F04185
:1009300002F052F902F06EF9022000F047F80024AC
:1009400025464FF48076114F02F05CF9012000F04B
:100950003DF802F05FF902F02BF9052000F036F8BF
:1009600064083146384600F0D1FB08B144F08004F9
:10097000372000F02BF802F02FF902F04BF96D1C34
:10098000082DE1DB2046BDE8F081000000080240B0
:1009900070B5044602F020F95FF0000502F032F96C
:1009A0000A2000F013F8E00702D002F033F901E06A
:1009B00002F028F96408322000F008F802F02AF961
:1009C0006D1C082DEADB70BD704700000449002251
:1009D0000B685A6209684A6A8242FCD97047000073
:1009E0008801002000F0ACBA00E0401E0028FCDCCA
:1009F000704772B6FEE700002DE9F84F81462C489B
:100A00001E46884603884B454FD3418841454CD309
:100A1000B088410700D0012101EBD000203A10FB43
:100A200002F0F1884FF0800A484331684FF0010B23
:100A30000F18002536E000242BE00A9804F0070286
:100A4000A0F57F41FF3939782AFA02F001EA000166
:100A500001D009B90BE0B1B108EB050081B209EB97
:100A6000040080B20123CDF800B00B9A09E008EB36
:100A7000050081B209EB0400CDF800B080B201237B
:100A80000A9A00F0B9F9E043400700D17F1C641CCA
:100A9000A4B2B088A042D0D83079400700D07F1CE3
:100AA0006D1CADB2F088A842C5D8BDE8F88F000033
:100AB000480000202DE9FC5F8046194889460D4614
:100AC00001884446DDF834B01E461746A14225D3BE
:100AD00041888246A94221D31DE0B088BAF800308F
:100AE0000119994203D9F188444629448DB2F1880D
:100AF000BAF802002944814201D944464D460C9976
:100B0000CDE9001B334629462046FFF775FFB08824
:100B10007F1C204484B23A78002ADED1BDE8FC9FD5
:100B2000480000202DE9FF4F8046814885B00F46E0
:100B30000488129944457BD34088B84278D9032071
:100B40000024A0EB420015B20FFA80FA01297BD0F5
:100B5000EAE0264661E000BF4FF0010908EB04001F
:100B600007EB060B02901FFA8BF1CDF8009080B2D4
:100B70004B46089A00F040F9A8EB040004901FFAD5
:100B80008BF1CDF8009080B20123089A00F034F97F
:100B90003819CDE9009081B2A8EB060B1FFA8BF053
:100BA0000123089A00F028F9381B039081B2CDF890
:100BB00000901FFA8BF00123089A00F01DF90498A9
:100BC000A7EB060B1FFA8BF1CDF8009080B2012342
:100BD000089A00F011F902981FFA8BF1CDF80090F5
:100BE00080B20123089A00F007F9039808EB060B7E
:100BF00081B2CDF800901FFA8BF00123089A00F023
:100C0000FBF80198CDF8009081B21FFA8BF0012318
:100C1000089A00F0F1F8761C36B2AE429CDDBAF1CB
:100C2000000F07DA0AEB8400801D0FFA80FA09E052
:100C30000CE009E0611B0AEB81000A306D1E0FFA1F
:100C400080FA2DB2641C24B2AC4282DD09B0BDE84A
:100C5000F08F08EB0400012607EB050902901FFA4C
:100C600089F1009680B2139B089A00F0C5F8A8EBB2
:100C7000040003901FFA89F1009680B2139B089A32
:100C800000F0BAF83819CDE9006081B2A8EB050987
:100C90001FFA89F0139B089A00F0AEF8A7EB040B3B
:100CA0001FFA8BF11FFA89F00096139B089A00F047
:100CB000A3F80398A7EB05091FFA89F1009680B203
:100CC000139B089A00F098F802981FFA89F1009691
:100CD00080B2139B089A00F08FF808EB05091FFA01
:100CE0008BF11FFA89F00096139B089A00F084F8A4
:100CF0000198009681B21FFA89F0139B089A00F0C0
:100D00007BF8BAF1000F05DA0AEB8400801D0FFAB8
:100D100080FA07E0611B0AEB81000A306D1E0FFAB2
:100D200080FA2DB2641C24B2AC4292DD8EE7000042
:100D3000480000202DE9FE4F1C462E4B15461A8810
:100D4000824254D35B888B4251D3AA424FD3A342F1
:100D50004DD383468A462A1A00D5421B9146621A11
:100D6000002A00DD0A1B90464FF0FF32AB4501D24E
:100D7000012000E010460290A24500D2012209EBBA
:100D80000806002701927F1C0D987FB2012805D12B
:100D9000032097FBF0F100FB1170E8B101200090F7
:100DA000514658460E9B0C9A00F026F8B8EB460FB9
:100DB00006DCAB451BD00298464458441FFA80FB22
:100DC000B9EB460FDFDBA24511D001994E440AEB87
:100DD00001001FFA80FAD6E7012000904FF6FF725B
:100DE000514658460E9B00F007F80027DEE7BDE8A5
:100DF000FE8F0000480000202DE9F05F8146214869
:100E00001C46884603880A9993464B4521D342885D
:100E100042451ED301294FF000062FD1881E00EB5A
:100E2000440714E009EB06000025A0EB040A0AE0E1
:100E300008EB0500001B81B21FFA8AF05A4601F048
:100E4000C3FC6D1CADB2AF42F2DC761CB6B2B74249
:100E5000E8DCBDE8F09F002509EB06077F1E09E0EE
:100E600008EB0500401E81B2B8B25A4601F0ACFC56
:100E70006D1CADB2A542F3D3761CB6B2A642EAD33E
:100E8000E7E70000480000202DE9FE4F8846224990
:100E900017468146DDE90C4208880E9D1E464845EE
:100EA00010D34988434641450CD3B8420AD3B142D6
:100EB00008D3184642B1014633463A4648460094A4
:100EC00001F0F2FBBDE8FE8F4FF0000ACDE9004AC9
:100ED00043463A46194648460295FFF72BFFCDE9AF
:100EE000004A4A463346414610460295FFF722FF24
:100EF000CDE9004A3A464346314610460295FFF78F
:100F000019FFCDE9004A33464A461946384602954C
:100F1000FFF710FFD6E700004800002090F83510DA
:100F2000022903D08021416501207047052180F806
:100F300035100068016821F0010101600020704750
:100F400070B5044600F0ECF80546601C02D0044879
:100F50000078044400F0E4F8401BA042FAD370BDCE
:100F60002C0000202DE9F84F00224FF00108032546
:100F70004FF00F0E0B6808FA02F42340A3426ED123
:100F80004E68012E05D0022E03D0112E01D0122E54
:100F900012D186684FEA420C05FA0CF7BE43CF68BF
:100FA00007FA0CF7374387604668A6430C79C4F309
:100FB0000014944034434460C668570005FA07FCA7
:100FC0008C6826EA0C06BC403443C4604C68022C92
:100FD00001D0122C13D1D40800EB8404A346D4F81A
:100FE000209054074FEAD46A0EFA0AF629EA060955
:100FF0000E6906FA0AF646EA0906CBF8206006688A
:101000000C7926EA0C0604F00304BC403443046067
:101010004C68E40060D5334C266846F48046266070
:10102000246822F0030604F4804400942E4C3444D7
:10103000A446D4F808489607370F0EFA07F6B443CB
:101040002A4EB04201D100261FE0294EB04201D104
:1010500001261AE0274EB04202D1022615E03BE0FD
:10106000254EB04201D103260FE0244EB04201D1FB
:1010700004260AE0224EB04201D1052605E0214EA9
:10108000B04201D1062600E00726BE402643CCF838
:1010900008681D4E34684F689C43FF0300D51C430D
:1010A0003460194E361D34684F689C43BF0300D529
:1010B0001C433460144E083634684F689C43FF026A
:1010C00000D51C433460104E0C3634684F689C4386
:1010D000BF0200D51C433460521C102AFFF44AAFF3
:1010E000BDE8F88F44380240003001400000024063
:1010F0000004024000080240000C024000100240C0
:101100000014024000180240003C01400069084001
:1011100000D0012070470AB1816170470904FBE7E4
:1011200001488068704700002C0000200248816858
:1011300002781144816070472C0000200B4810B5E4
:10114000016841F400710160016841F4806101604F
:10115000016841F480710160032000F071F8002003
:1011600000F006F800F024F8002010BD003C02401A
:1011700070B50D4D04464FF47A712878B1FBF0F04C
:101180000A490968B1FBF0F000F025FD48B9102CC0
:1011900007D200222146501E00F032F800206C6079
:1011A00070BD012070BD00002C0000203800002020
:1011B0000B4882B0016841F480410160006800F48E
:1011C000804000900648001F016841F08051016096
:1011D000006800F080500090072002B000F030B8A6
:1011E00044380240002809DB00F01F020121914031
:1011F0004009800000F1E020C0F8001170470000B5
:10120000F0B40E4B1B680C46C3F30223C3F1070571
:10121000042D00D90425191D072901D2002300E05F
:10122000DB1E012606FA05F1491E214099409E4029
:10123000761E16403143F0BC02F093BE0CED00E088
:10124000064900F0070208684FF6FF03184040EA1D
:101250000220034A10430860704700000CED00E0D4
:101260000000FA052DE9F0470E46050065D0DFF8CD
:101270001481D8F80000F7B200F00F00B04207D296
:1012800088F80070D8F8000000F00F00B04254D188
:1012900028683D4C810712D5400703D5206840F4EB
:1012A000E05020602878000703D5206840F46040B3
:1012B00020602068A96820F0F000084320602878AA
:1012C000C0072DD0304968680839012812D002289B
:1012D00013D0032811D00968890700292DDA216865
:1012E00021F0030101432160FFF71AFF814641F21B
:1012F000883A0EE009688903EFE709688901ECE79D
:10130000FFF70EFFA0EB0901514502D90320BDE80C
:10131000F0872068696800F00C00B0EB810FEFD116
:10132000D8F80010404601F00F01B14207D907700C
:10133000006800F00F00B04201D00120E7E72878F4
:10134000400705D52068E96820F4E0500843206094
:101350002878000706D52068296920F4604040EA13
:10136000C100206000F038F82168084AC1F3031179
:10137000515CC8400649086006480068FFF7F8FE5F
:101380000020C4E7003C02400838024006850008FF
:101390003800002030000020044805490068096832
:1013A000044AC1F38221515CC840704738000020D4
:1013B0000838024016850008044805490068096895
:1013C000044AC1F34231515CC840704738000020E4
:1013D0000838024016850008224810B5006810F051
:1013E0000C02214815D04110042A11D01D4C241F95
:1013F000082A0FD00C2A0CD12268236802F03F0281
:101400005B0221D52068C0F38810A0FB010120E019
:10141000084610BD2268236802F03F025B0205D532
:101420002068C0F38810A0FB010104E02168C1F32B
:101430008811A1FB00010023FEF7E2FE2168C1F341
:101440000141491C49000AE02168C1F38811A1FB50
:1014500000010023FEF7D4FE2168C1F30271B0FB46
:10146000F1F010BD083802400024F4002DE9F84FD7
:101470000546DFF828B30078ABF10407C007A7F1F1
:10148000040451D0DBF800105846C1F38101012952
:101490000FD00168C1F38101022902D139684902E4
:1014A00007D40068C0F38100032809D138684002DE
:1014B00006D52068800337D56868002872D033E0ED
:1014C0006868B0F5803F10D0B0F5A02F206810D02C
:1014D00020F480302060206820F48020206068683C
:1014E000A8B1FFF71DFE06460DE0206840F48030ED
:1014F000F4E740F480202060F7E700BFFFF710FE1C
:10150000801B642878D820688003F7D50CE0FFF7AB
:1015100007FE064605E000BFFFF702FE801B6428B9
:10152000F0D820688003F7D42878DFF87492800719
:101530004FF0000A46D5DBF80010584611F00C0FAA
:101540000FD00168C1F38101022902D13968490233
:1015500007D50068C0F38100032809D1386840022C
:1015600006D42068800715D5E86801281AD111E053
:10157000E868C0B10120C9F80000FFF7D1FD0646B8
:1015800005E000BFFFF7CCFD801B0228BAD8206819
:101590008007F7D52068296920F0F80040EAC100EB
:1015A00020600FE0F7E0C9F800A0FFF7B9FD06469C
:1015B00005E000BFFFF7B4FD801B02281CD820689F
:1015C0008007F7D42878000727D5DFF8D081754841
:1015D000696908F16C0881B101210160FFF7A0FD84
:1015E000064604E0FFF79CFD801B022804D8D8F8CB
:1015F00000008007F6D510E089E0C0F800A0FFF7F2
:101600008FFD064605E000BFFFF78AFD801B02281C
:101610007DD8D8F800008007F6D42878400769D52F
:101620005E484FF0000838300068C0000BD45B48BB
:101630003830016841F08051016000684FF00108C6
:1016400000F080500090584E3068C00511D43068CA
:1016500040F480703060FFF763FD009006E000BF4B
:10166000FFF75EFD0099401A022850D83068C00587
:10167000F6D54A4EA868683601280FD0052830688C
:1016800010D020F001003060306820F0040030609D
:10169000A868B8B1FFF744FD00900FE0306840F053
:1016A0000100F4E740F004003060F7E7FFF738FD91
:1016B0000099411A41F28830814264D8306880072D
:1016C000F4D50EE0FFF72CFD009007E0FFF728FDB2
:1016D0000099411A41F28830814254D8306880071D
:1016E000F4D4B8F1000F05D02C483830016821F04F
:1016F00080510160A869A8B3DBF80010C1F3810133
:10170000022948D00228C9F860A005D000E03AE0DC
:10171000FFF706FD054639E0FFF702FD064604E047
:10172000FFF7FEFC801B02282DD820688001F7D42B
:10173000F5E907010843E9681C4A490802EB014141
:10174000AA6841EA82110843297C40EA0160297DA8
:1017500040EA017038600120C9F86000FFF7E0FC42
:10176000054606E015E000BFFFF7DAFC401B022843
:1017700009D820688001F7D50BE000BFFFF7D0FC47
:10178000401B022802D90320BDE8F88F20688001A1
:10179000F4D40020F8E70120F6E700000838024002
:1017A00000004742800E4742007000400000FFFFEB
:1017B00070B5040005D00025A56294F8510010B161
:1017C00006E0012070BD84F85050204600F030F84B
:1017D000022084F851002068016821F04001016076
:1017E000D4E901010843D4E90312114308436169B4
:1017F0000843218B01F400710843E1690843216A21
:101800000843A16A084321680860A069042101EA2D
:101810001040616A0843216848602068C16921F46A
:101820000061C1616565012084F85100002070BD30
:1018300010B586B0044614216846FEF719FD134919
:101840002068884220D112480021026842F4805268
:101850000260006800F4805005900D48143802685A
:1018600042F001020260006800F001000590E020F3
:1018700000900220CDE9010103200390052004908F
:1018800069460448FFF76EFB06B010BD003001400A
:1018900044380240000002402DE9F84F044690F819
:1018A000500000271D461646894601280DD04FF0EE
:1018B000010B84F850B0FFF733FC804694F85100D8
:1018C000BA46012804D002278EE00220BDE8F88F36
:1018D000B9F1000F7DD0002E7BD0032084F8510099
:1018E000C4F854A0C4F83090A686E686C4F838A0A0
:1018F000A4F83CA0A4F83EA0C4F844A0C4F840A0BA
:10190000A068B0F5004F04D12068016841F480411F
:10191000016020680168490603D4016841F0400174
:101920000160E068B0F5006F606803D030B3012E4D
:1019300024D040E008B1012E1CD1206B2168008822
:10194000C86006E020688168890709D5216B09888D
:10195000C160206B801C2063E08E401EE08609E0A1
:10196000FFF7DEFBA0EB0800A84202D3681C01D001
:1019700031E07DB3E08E0028E4D11FE0206B2168C8
:101980000078087306E020688168890709D5216B13
:1019900009780173206B401C2063E08E401EE086B6
:1019A00009E0FFF7BDFBA0EB0800A84202D3681CCA
:1019B00001D010E075B1E08E0028E4D142462946FE
:1019C000204601F067F908B120206065A06820B1C9
:1019D00007E008E0FFE7032706E02068C1688068A9
:1019E0000090606D00B1012784F851B084F850A0D8
:1019F00038466BE72DE9F84F044690F85000002771
:101A00000A9E1D4692468B464FF0010901280ED0D2
:101A1000012084F85000FFF783FB804694F85100C2
:101A2000616801280CD0B1F5827F07D102E0022065
:101A3000BDE8F88FA16809B9042801D00227C2E0E7
:101A4000BBF1000F27D0BAF1000F24D01DB394F8DA
:101A50005100042802D0052084F851000020606560
:101A6000C4F838A0E587A587C4F830B0E586A58618
:101A70002064606420680168490603D4016841F06D
:101A800040010160E068B0F5006F606805D0E8B320
:101A9000012D46D07FE0012795E008B1012D39D115
:101AA000206B21680088C860206B801C2063E08E5A
:101AB000401EE0862EE02068816889070FD5E18E00
:101AC00069B1B9F1010F0AD1216B0988C160206B9E
:101AD000801C2063E08E401EE0864FF000092068E5
:101AE0008168C9070CD0E18F51B1C068A16B088033
:101AF000A06B801CA063E08F401EE0874FF00109BF
:101B0000FFF70EFBA0EB0800B04200E009E001D3B4
:101B1000701C50D1E08E0028CDD1E08F0028CAD1B2
:101B20003FE0206B216800780873206B401C206325
:101B3000E08E401EE0862EE02068816889070FD580
:101B4000E18E69B1B9F1010F0AD1216B09780173F6
:101B5000206B401C2063E08E401EE0864FF00009A1
:101B600020688168C9070CD0E18F51B1C068A16BB2
:101B70000870A06B401CA063E08F401EE0874FF010
:101B80000109FFF7CDFAA0EB0800B04202D3701CA8
:101B900001D010E07EB1E08E0028CDD1E08F00288A
:101BA000CAD142463146204601F074F828B10127D7
:101BB0002020606507E0032705E0A06818B92068C9
:101BC000C16880680090012084F85100002084F8EA
:101BD000500038462CE710B5401EB0F1807F01D38D
:101BE000012010BD4FF0E02460610F21601702F06A
:101BF000B8F90020A06107202061002010BD7047C7
:101C00007047000070B590F83C20012A32D00124C2
:101C100080F83C40022280F83D2003685A689D68A5
:101C200022F070060A6832435A60134B02689A42E7
:101C300014D0B2F1804F11D0104B9A420ED0104BFD
:101C40009A420BD00F4B9A4208D00F4B9A4205D0C4
:101C50000E4B9A4202D00E4B9A4204D1496825F0AD
:101C600080031943916080F83D40002180F83C10CA
:101C7000084670BD022070BD000001400004004015
:101C800000080040000C00400004014000400140FA
:101C90000018004010B5040003D094F83D0010B1C6
:101CA00007E0012010BD002084F83C00204600F031
:101CB0000DF8022084F83D00211D206801F0C2F8D3
:101CC000012084F83D00002010BD000008B5174A2F
:101CD00001681748914207D1016841F04001016055
:101CE000006800F040001EE0124A914211D10168E4
:101CF00041F0800101600068002200F08000009047
:101D000011462C20FFF77CFABDE808402C20FFF795
:101D100069BA094A914207D1016841F480710160B2
:101D2000006800F48070009008BD000000180040BA
:101D300040380240001C0040002000400168CA6892
:101D400042F00102CA600068816801F007010629BB
:101D500003D0016841F00101016000207047016873
:101D6000CA6822F00102CA600068016A41F21112D9
:101D7000114207D1016A9210114203D1016821F08A
:101D8000010101600020704770B5044690F83C00E6
:101D9000012817D0012584F83C50022084F83D002A
:101DA0002068826822F0770222F47F42826008680D
:101DB000502830D00DDC20284DD005DC98B31028F9
:101DC0003BD148E0022070BD302844D0402834D1B7
:101DD00039E0602828D0702806D0B0F5805F2CD07C
:101DE000B0F5005F29D10AE0CB68D1E90121206874
:101DF00001F099F82068816841F0770109E0CB682B
:101E0000D1E90121206801F08EF82068816841F451
:101E10008041816011E0CA684968206801F058F982
:101E20005021206807E016E0CA684968206801F080
:101E300060F96021206801F080F884F83D500020AE
:101E400084F83C0070BDCA684968206801F040F918
:101E500040212068EFE7226801461046EBE7704713
:101E600070B50446006801694FF00005C943890751
:101E700015D4C168C943890711D4E91E0161012045
:101E80002077206880698007204602D0FFF7E7FFAF
:101E900004E000F0DBF8204600F070F925772068B8
:101EA0000169C943490717D4C168C943490713D415
:101EB0006FF004010161022020772068806910F42E
:101EC000407F204602D0FFF7CAFF04E000F0BEF8D2
:101ED000204600F053F9257720680169C9430907B6
:101EE00016D4C168C943090712D46FF00801016113
:101EF000042020772068C0698007204602D0FFF7C1
:101F0000AEFF04E000F0A2F8204600F037F9257794
:101F100020680169C943C90617D4C168C943C90605
:101F200013D46FF010010161082020772068C06988
:101F300010F4407F204602D0FFF791FF04E000F04C
:101F400085F8204600F01AF9257720680169C94311
:101F5000C90708D1C168C943C90704D1891E0161F5
:101F6000204600F02FF920680169C943090609D409
:101F7000C168C943090605D46FF08001016120469C
:101F8000FFF73DFE20680169C943490609D4C168CD
:101F9000C943490605D46FF040010161204600F0B5
:101FA00035F920680169C94389060BD4C168C94362
:101FB000890607D46FF0200101612046BDE870401A
:101FC000FFF71EBE70BD000010B586B00446142198
:101FD0006846FEF74DF92368174C00211748022286
:101FE000A34210D1036843F004030360006800F0CB
:101FF0000400059080200090CDE90121CDE9031275
:1020000069460F4813E00F4CA34212D1036843F016
:1020100002030360006800F00200059020140090A5
:10202000CDE901210920CDE9031069460648FEF7F4
:1020300099FF06B010BD0000000400403038024097
:10204000000802400018004000040240704770B5CC
:10205000044690F83C000D4601280DD0012684F876
:102060003C60022084F83D0042B1042A18D0082ABE
:102070002AD00C2A4DD139E0022070BD206800F032
:1020800065FF2068816941F00801816120688169EC
:1020900021F004018161206881692A69114311E0FE
:1020A000206800F083FF2068816941F4006181614C
:1020B0002068816921F480618161206881692A69D1
:1020C00041EA0221816124E0206800F0A5FF206838
:1020D000C16941F00801C1612068C16921F00401B2
:1020E000C1612068C1692A69114311E0206800F0CC
:1020F000C7FF2068C16941F40061C1612068C169FE
:1021000021F48061C1612068C1692A6941EA022124
:10211000C16184F83D60002084F83C0070BD10B5BA
:10212000040003D094F83D0010B107E0012010BD79
:10213000002084F83C00204600F00CF8022084F8CF
:102140003D00211D206800F07DFE012084F83D0047
:10215000002010BD08B500680649884208D106482D
:10216000016841F002010160006800F00200009087
:1021700008BD0000000400404038024070470000E5
:1021800010B504460068012200F0C0FE0B4920682B
:10219000884202D00A49884203D1416C41F400418F
:1021A00041642068816801F00701062903D00168B5
:1021B00041F001010160002010BD0000000001405D
:1021C0000004014010B500680C49884214D101F0A8
:1021D00065FDFEF7CAF89FED0A1B53EC112BFEF7C5
:1021E00052F8FEF7E6F800EE100A074880ED000A04
:1021F000BDE8104001F06ABA10BD0000001C0040AC
:10220000000000000000B03F280000207047704729
:1022100070B5026804461068D168536910F00F0F5A
:1022200052D003F0010501F490762E435FD0C2072F
:1022300005D0CA0503D5E26B42F00102E263420712
:1022400005D5DA0703D0E26B42F00202E2638207AF
:1022500005D5DA0703D0E26B42F00402E26302071D
:1022600007D501F020022A4303D0E26B42F00802B6
:10227000E263E26B002A33D0800604D5880602D5DB
:10228000204601F03EFD20684069E16BC0F38010FC
:10229000090700D428B3204601F025FD20684169D4
:1022A00049061AD5416921F040014161606BA0B136
:1022B0001B490165606BFEF731FE002810D0606B92
:1022C000016DBDE870400847830610D58B060ED51A
:1022D0002046BDE8704001F014BD2046FFF797FF8F
:1022E00070BD2046FFF793FF0020E06370BD03063A
:1022F00006D50B0604D52046BDE8704001F0E0BDD0
:102300004006F3D54806F1D5D168204621F04001BA
:10231000D160202184F8391000F073F870BD0000FE
:10232000D73C000870B5040004D094F839000025AB
:1023300010B106E0012070BD84F83850204600F04E
:1023400023F8242084F839002068C16821F4005162
:10235000C160204601F020FD2068016921F4904110
:1023600001612068416921F02A0141612068C1684A
:1023700041F40051C160E563202084F8390084F8FD
:102380003A00002070BD000010B586B0044614214C
:102390006846FDF76DFF17492068884228D1164826
:1023A0000021026842F400320260006800F400304C
:1023B000059011481038026842F00102026000687E
:1023C00000F0010005900C2000900220CDE90101F1
:1023D000032003900720049069460848FEF7C2FDD9
:1023E000002211462620FEF70BFF2620FEF7FAFEFC
:1023F00006B010BD004400404038024000000240DA
:1024000070477047FEE7000008B5002100900348C0
:1024100043880288084600F047F908BD48000020BC
:102420002DE9F04101221B4E0C46804655022946FB
:102430003046FEF770FE4FF4FA773846FEF7D2FAD0
:10244000002229463046FEF766FE3846FEF7CAFAF5
:10245000012229463046FEF75EFE3846FEF7C2FAF4
:102460007800844200D90446204600F0DBFB00F0EF
:1024700013F8404600F05EF9C820FEF7B3FA1120C9
:1024800000F004FA7820FEF7ADFABDE8F04129200B
:1024900000F0FCB90000024010B5F92000F0F6F998
:1024A000002000F0D5F9082000F0D2F9C02000F09B
:1024B000EDF9192000F0CCF91A2000F0C9F9C1207B
:1024C00000F0E4F9452000F0C3F9002000F0C0F965
:1024D000C22000F0DBF9332000F0BAF9C52000F08B
:1024E000D5F9002000F0B4F9282000F0B1F9B120AE
:1024F00000F0CCF9A02000F0ABF9112000F0A8F911
:10250000B42000F0C3F9022000F0A2F9B62000F0D8
:10251000BDF9002000F09CF9422000F099F93B2021
:1025200000F096F9B72000F0B1F9072000F090F91B
:10253000E02000F0ABF91F2000F08AF9252000F020
:1025400087F9222000F084F90B2000F081F90620A1
:1025500000F07EF90A2000F07BF94E2000F078F9B7
:10256000C62000F075F9392000F072F9002000F063
:102570006FF9002000F06CF9002000F069F90020EC
:1025800000F066F9002000F063F9002000F060F927
:10259000E12000F07BF91F2000F05AF93F2000F005
:1025A00057F93F2000F054F90F2000F051F91F2097
:1025B00000F04EF90F2000F04BF9462000F048F9EA
:1025C000492000F045F9312000F042F9052000F0E3
:1025D0003FF9092000F03CF9032000F039F91C20F4
:1025E00000F036F91A2000F033F9002000F030F93D
:1025F000F12000F04BF9362000F02AF9042000F019
:1026000027F9002000F024F93C2000F021F90F20E8
:1026100000F01EF90F2000F01BF9A42000F018F9BB
:10262000022000F015F9F22000F030F9182000F037
:102630000FF9A32000F00CF9122000F009F9022094
:1026400000F006F9322000F003F9122000F000F942
:10265000FF2000F0FDF8322000F0FAF8002000F032
:10266000F7F8F42000F012F9402000F0F1F8002013
:1026700000F0EEF8082000F0EBF8912000F0E8F808
:10268000042000F0E5F8F82000F000F9212000F027
:10269000DFF8042000F0DCF83A2000F0F7F8BDE89D
:1026A0001040552000F0D4B82DE9F0410746DDF880
:1026B00018801C4615460E46BA420CD9B4420AD9B7
:1026C00000F098F8A01B82B2E81B81B24046BDE83A
:1026D000F04100F003B8BDE8F08100002DE9F041C1
:1026E00001FB02F60446012211020E48FEF713FD1B
:1026F000DFF83480002240214046FEF70CFD002523
:10270000270A06E0384600F0B9FAE0B200F0B6FA5F
:102710006D1CB542F6D34046BDE8F0410122402190
:10272000FEF7F9BC00000240000402400B460246DE
:1027300000F060B870B5002522492C464FF4A07215
:102740004FF4F07308281FD2DFE800F004070A0DE9
:102750001114181B0825222407E00825622404E030
:102760000825022401E008254224087127E02825D5
:10277000222401E02825022408710DE02825622486
:10278000FAE728254224F7E70871C0B1012816D0DE
:10279000022814D0032812D00B804A80B62000F003
:1027A00075F8002000F054F8204600F051F836206B
:1027B00000F06CF82846BDE8704000F049B80A8087
:1027C0004B80EBE74800002010B5094B14461A88EF
:1027D00082420BD35A888A4208D3FFF7A7FF2046CC
:1027E0000122BDE810401146FFF778BF10BD000080
:1027F000480000202DE9F04107461D4614460E46CC
:102800002A2000F043F8380A00F022F8F8B200F06D
:102810001FF8641EC4F3072000F01AF8E0B200F0BD
:1028200017F82B2000F032F8300A00F011F8F0B25F
:1028300000F00EF86D1EC5F3072000F009F8E8B2AD
:1028400000F006F8BDE8F0412C2000F01FB80000B1
:1028500070B50546012211020A48FEF75CFC0A4CDD
:10286000002240212046FEF756FC002000F006FA28
:10287000284600F003FA2046BDE8704001224021BE
:10288000FEF749BC000002400004024070B5054656
:1028900000224FF480710948FEF73DFC084C0022ED
:1028A00040212046FEF737FC284600F0E7F9204695
:1028B000BDE8704001224021FEF72DBC000002401F
:1028C000000402402DE9F04387B014216846FDF76B
:1028D000CFFC38480024016841F004010160016820
:1028E00001F004010591016841F080010160016877
:1028F00001F080010591016841F00101016001686A
:1029000001F001010591016841F0020101600068D8
:10291000294F00F002000590002240213846FEF7C2
:10292000FAFBDFF898804FF44076002231464046AB
:10293000FEF7F1FBDFF88890002270214846FEF791
:10294000EAFB4FF4005000901E48CDE901046946AF
:102950003846FEF707FB4FF48160CDE90004694675
:1029600048460294FEF7FEFA402000900125CDE98A
:102970000154694638460394FEF7F4FA2802CDE97B
:102980000004694638460294FEF7ECFA0096CDE959
:102990000154694640460394FEF7E4FA7020009023
:1029A000CDE90154694648460394FEF7DBFA07B0C7
:1029B000BDE8F083303802400008024000000240C9
:1029C0000004024000002110104810B50E490160BB
:1029D0004FF48271416000218160C1604FF4007248
:1029E0000161C0E905120822C0E907214162816244
:1029F0000A21C162FEF7DCFE002803D0BDE81040CA
:102A0000FDF7F7BF10BD000000300140700000204E
:102A100010B58CB000240794089409941C216846D2
:102A20000A94FDF725FC1A48184901604721C0E9BE
:102A3000011440F2E731C0E9031480218161FFF7FE
:102A400029F908B1FDF7D5FF4FF48050079007A989
:102A50000F48FFF799F908B1FDF7CBFF0C48FFF7D6
:102A60005EFB08B1FDF7C5FF6020CDE900040294CC
:102A70000022694606480494FFF7E9FA08B1FDF719
:102A8000B8FF0348FFF7A0FA0CB010BD00180040D3
:102A9000080100200C4810B50A49016041F61F41A9
:102AA0004160002142F20F72C0E9021201618161AE
:102AB000FFF7F0F8002803D0BDE81040FDF799BFFC
:102AC00010BD0000001C0040480100200B4810B55C
:102AD000094901604721416000214FF6FF72C0E9BA
:102AE000021201618161FFF7D5F8002803D0BDE82B
:102AF0001040FDF77EBF10BD00200040880100207F
:102B000010B58AB0002407941C2168460894FDF78C
:102B1000AFFB17481549016040F2CF21C0E901140D
:102B200040F2E731C0E903148461FFF7F8FA08B115
:102B3000FDF75FFF079407A90D480894FFF762F8B7
:102B400008B1FDF756FF6020CDE90004029404228D
:102B5000694607480494FFF77AFA08B1FDF749FF80
:102B60000348FFF731FA0AB010BD0000000400402E
:102B7000C80000200C4810B50A4901604FF4E1314B
:102B80004160002181600C22C160C0E904128161B2
:102B9000C161FFF7C7FB002803D0BDE81040FDF777
:102BA00028BF10BD00440040C8010020FEE7FEE73A
:102BB00000B585B014216846FDF75AFB4FF48070CC
:102BC000009000200190029069460248FEF7CAF981
:102BD00005B000BD0008024000B585B0142168466C
:102BE000FDF746FB4FF4807000900120019000201B
:102BF000029069460248FEF7B5F905B000BD000035
:102C00000008024000224FF480710148FEF783BAA9
:102C100000080240012211020148FEF77CBA0000C0
:102C20000008024000B587B06021CDE90010002007
:102C300002900490042269460448FFF708FA042130
:102C40000248FFF79DFA07B000BD0000C800002051
:102C50007047000001B582B000208DF804004FF4E9
:102C60007A700090012301AA02A90348FEF7C2FE70
:102C70009DF804000EBD00007000002001B54FF467
:102C80007A73012269460248FEF706FE08BD00007D
:102C90007000002038B504461248134B0068B0FBA2
:102CA000F3F04FF47A73584300906068B0F5827F78
:102CB0000DD10B46009200228021204600F016F82C
:102CC00070B1606D40F020006065032038BD009851
:102CD00030B1401E009020688068C0430006F6D5E1
:102CE000002038BD3800002000366E012DE9F0418B
:102CF0001D4617460E460446DDF8188008E0681C9D
:102D000006D0FEF70DFAA0EB0800A8420BD255B191
:102D10002068806836EA000030D00020B842EED14A
:102D20000020BDE8F0812068416821F0E0014160A9
:102D30006068B0F5827F0BD1A068B0F5004F02D07B
:102D4000B0F5806F04D12068016821F04001016076
:102D5000A06AB0F5005F09D12068016821F4005134
:102D600001602068016841F400510160012084F88D
:102D70005100002084F850000320D2E70120CDE765
:102D80007047FEF7D3B9000030B593B034216846E0
:102D9000FDF76EFA14210DA8FDF76AFA1D4800250B
:102DA000016841F080510160006800F0805012908D
:102DB0001948016821F4404141F4804101600068F4
:102DC000022400F44040129001200390102004904F
:102DD000009406940820CDE907504820CDE9090465
:102DE0000B9468460C94FEF741FB08B172B6FEE7FF
:102DF0000DA90F2081E831004FF48050CDE9100576
:102E000002210DA8FEF72EFA002801D072B6FEE7C7
:102E100013B030BD403802400070004005480168E2
:102E200041F47001016003494FF00060803908608F
:102E30007047000088ED00E00148FFF711B800007E
:102E400048010020F0B50268254C264D264E274F3C
:102E5000274B4FF0804CA04209D0604507D0A842D4
:102E600005D0B04203D0B84201D0984204D122F03C
:102E7000700E4A6842EA0E02A0421BD0604519D08B
:102E8000A84217D0B04215D0B84213D0984211D002
:102E9000184DA8420ED0184DA8420BD0174DA8428D
:102EA00008D0174DA84205D0164DA84202D0164DA5
:102EB000A84203D122F44075CA682A434D6922F022
:102EC00080022A4302608A68C2620A688262A04263
:102ED00001D0984201D10969016301214161F0BD2E
:102EE000000001400004004000080040000C0040C9
:102EF00000040140004001400044014000480140FE
:102F000000180040001C00400020004010B501F0F7
:102F10001F030121046A99408C430462016A9A40AC
:102F20001143016210BD10B5846842EA032224F403
:102F30007F440A432243826010BD826822F07002FF
:102F40000A4342F00701816070470000F0B5026A51
:102F500022F001020262036A42688469124E24F080
:102F600073050C682C4323F002058B682B430D4D31
:102F7000A84201D0B04205D123F00807CB683B43FB
:102F800023F00403A84201D0B04205D14D6922F4D8
:102F9000407215438A692A434260846149684163EB
:102FA0000362F0BD0000014000040140F0B5026A78
:102FB00022F010020262026A436884690D6824F4F8
:102FC000E64444EA05248D6822F0200242EA051214
:102FD0000F4D104EA84201D0B04206D1CF6822F06A
:102FE000800242EA071222F04002A84201D0B04219
:102FF00007D14D6923F4406343EA85038D6943EAB1
:10300000850343608461496881630262F0BD00000A
:103010000000014000040140F0B5026A22F4807211
:103020000262026A4368C46922F4007224F07305E4
:103030000C68124E2C438D6842EA05220E4DA842C0
:1030400001D0B04206D1CF6822F4006242EA0722E2
:1030500022F48062A84201D0B04207D14D6923F426
:10306000405343EA05138D6943EA05134360C46185
:103070004968C1630262F0BD0000014000040140E4
:1030800030B5026A22F480520262046A4268C3695F
:103090000D6823F4E64343EA05238D6824F40054C5
:1030A00044EA0534084DA84202D0084DA84204D194
:1030B0004D6922F4804242EA85124260C361496848
:1030C0000164046230BD00000000014000040140C2
:1030D00010B5036A046A24F001040462846924F0D0
:1030E000F00444EA021423F00A020A4384610262F3
:1030F00010BD10B5036A23F0100303628369046AEC
:1031000023F4704343EA023224F0A00343EA01119E
:103110008261016210BD00001CB528486FF01502E5
:10312000017E062913D0F9B103292BD0052936D009
:10313000140C2046FFF768F94FF47840CDE90040C1
:103140001F4B204A3C210020FDF7B4FC1CBD9FED25
:103150001E0A4FF4017180ED040A9FED1C0A80EDF8
:10316000050A418182811CBD9FED190A6FF014018F
:1031700080ED040A9FED170A80ED050A41816FF08A
:1031800026010AE09FED140A6FF0250180ED040A84
:103190009FED120A80ED050A428181811CBD9FEDE1
:1031A000100A40F2052180ED040A9FED0E0A80ED21
:1031B000050A41816FF01301EFE700005400002081
:1031C00000000020B0850008239F07BE5950B83D7D
:1031D00010B3B73DEA060A3E5B25B83DD05F083E16
:1031E000831808BE7826B43D10B50446012220217C
:1031F0000548FDF790FF0548811D0476BDE81040A5
:10320000001D00F069B800000004024054000020D6
:1032100070B5154C06462820E0612046FEF7C8FA36
:10322000124D002220212846FDF775FF3046FFF79A
:1032300025FDC820FDF7D8FBFF20FFF70BFD4FF65B
:10324000FF7101EA0026FF20FFF704FD3043C608A6
:10325000012220212846FDF75EFF0820E06120467C
:10326000FEF7A6FA304670BD700000200004024050
:10327000FEB5002507462E466C463846FFF7C8FFC8
:1032800024F81600C820FDF7AFFB761CF6B2052E19
:10329000F3D30020411C0B460BE000BF34F8102094
:1032A00034F81160B24203D924F8106024F81120D8
:1032B000491CC9B20529F1D3D8B20428EAD30120A8
:1032C00034F81010401C2944C0B28DB20428F7D342
:1032D0000320B5FBF0F0FEBD70B505460C46D020CE
:1032E000FFF7C6FF28809020FFF7C2FF208070BD47
:1032F0007FB50C460546694602A8FFF7EDFF01A918
:1033000003A8FFF7E9FFBDF80C30BDF80820934291
:1033100003D803F13200824205D39A421FD802F14A
:10332000320083421BD2BDF80410BDF80000814278
:1033300003D801F13206B04204D388420FD83230AC
:1033400081420CD2D01840082880BDF80000BDF89A
:103350000410084440082080012004B070BD002003
:10336000FBE7000070B5054608216B48FDF7CEFE6F
:103370006A4C30B1207A010678D520F080002072A6
:10338000C6E004F1060104F1040015B1FFF7B0FF37
:1033900044E0FFF7ADFFE0B3227E6148032A47D047
:1033A0006049BAB3052A7DD00A8894ED041A00EE6C
:1033B000102AE28800EE902AB8EE400AB4F90A20FA
:1033C000F8EE600A01EE600A00EE902AF8EEE00ADC
:1033D00030EE600ABCEEC00A10EE102A0280498866
:1033E00094ED051A00EE101AB4F80410B8EE400A75
:1033F00000EE901AB4F90C10F8EE600A01EE600AC3
:1034000000EE901AF8EEE00A30EE600ABCEEC00A58
:1034100001E003E02BE010EE101A4180207A000654
:1034200076D4C0202072A0882080E08860806FE081
:10343000B4F90A1094ED041A00EE101AA18800EEF7
:10344000901AB8EEC00AF8EE600A01EE200ABCEE4F
:10345000C00A10EE101A0180B4F90C1094ED051A90
:1034600000EE101AE188B8EEC00A43E049E00A888D
:1034700094ED041A00EE102AA28800EE902AB8EE0D
:10348000400AB4F90A20F8EE600A01EE600A00EE84
:10349000902AF8EEE00A30EE600ABCEEC00A10EEA8
:1034A000102A00E009E00280498894ED051A00EE38
:1034B000101AE188B8EE400A9AE7B4F90A1094EDC0
:1034C000041A00EE101AE18800EE901AB8EEC00A55
:1034D000F8EE600A01EE200ABCEEC00A10EE101AE7
:1034E0000180B4F90C1094ED051A00EE101AA188B1
:1034F000B8EEC00A00EE901AF8EE600A01EE200A5B
:1035000084E70020208060804FF6FF70A080E0807C
:10351000207A00F0800070BD0004024054000020BA
:1035200020000020480000202DE9FE434FF6FF74E4
:103530002046FEF769FF344801884088814261D9FE
:103540001F25324B32A20F211020CDE90045FDF797
:10355000B1FAEF02032000260097CDE9016037237E
:103560004FF4F07219463046FDF7E4FB384B39A2B0
:1035700050212320CDE90045FDF79CFACDE90076E6
:103580004FF00208BE23CD2278212820CDF80880F4
:10359000FDF77AFCCDE90076BE234FF4DC7278218A
:1035A00040F21310CDF80880FDF76EFC284B31A2D5
:1035B00093212D20CDE90045FDF77CFA244B30A264
:1035C00093214FF48C70CDE90045FDF773FA0F4B52
:1035D0002EA24FF48771BE20CDE90045FDF76AFAAF
:1035E0000A4B2DA240F21D118720CDE90045FDF7C1
:1035F00061FA064B2EA24FF496717820CDE9004572
:10360000FDF758FABDE8FE834800002000000020C6
:1036100055727A61647A656E6965207A61727A6141
:10362000647A616A6163652074656D706572617446
:10363000757261206F72617A20206F73776965748B
:103640006C656E69656D207720706F6B6F6A7500B1
:10365000080000205779626965727A20637A796D73
:103660002063686365737A207A61727A61647A6133
:103670006300000054454D5045524154555241009D
:103680004F53574945544C454E49450057796B6F48
:103690006E617763793A0000696E7A2E204B727AF8
:1036A00079737A746F6620506F6B6F7261000000DF
:1036B0006D677220696E7A2E2041726B6164697544
:1036C000737A20506F6B6F72610000002DE9F04338
:1036D000654C2DED048B83B0B0EE408A6068022803
:1036E0007ED10C2001F0EAFBB5EEC08A0646F1EE71
:1036F00010FA01D29FED5D8A00223146BDEEC80A64
:1037000010EE100A00EE100AB8EEC00A78EE408AF9
:1037100001F07CFB05462E2070559FED551B9FED5B
:10372000560B00F031FCB0EE409AF0EE609A18EEC5
:10373000900AFCF72BFE53EC192BFCF7A4FDFCF7C9
:1037400038FE00EE100A71190122BDEEC00A491CB4
:1037500010EE100A01F05AFB4FF6FF77A0239622D5
:103760008C2150200097FEF79FFF4FF47848CDE959
:103770000078434B32468C215020FDF79BF994EDA5
:10378000000A00250224B4EEC08ADFF8F890F1EEBA
:1037900010FA26D2AF2346227D2128200097FEF77B
:1037A00083FFCDF80080CDE9015437224746AA2394
:1037B00082211046FDF7BEFA0097CDE90154962309
:1037C0002D2282213720FDF7B5FA0097CDE901546B
:1037D0009623412282213720FDF7ACFA012232E004
:1037E0003DE023DDAF2346227D2128200097FEF710
:1037F0005BFF1F270097CDE901543722AA238221BE
:103800001046FDF797FA0097CDE9015496232D2233
:10381000AA213720FDF78EFA0097CDE901549623AF
:103820004122AA213720FDF785FA0BE0B4EE408A49
:10383000F1EE10FA0BD1AF2346227D21282000970C
:10384000FEF732FF002240214846FDF764FC03B03A
:103850003046BDEC048BBDE8F04301F0AFBA03B0D5
:10386000BDEC048BBDE8F0831800002000000000D0
:10387000000000000000F03F0000000000002440B5
:1038800010000020000802402DE9F04F0D202DED22
:10389000048B83B001F012FB80466C4890ED000A67
:1038A000B5EEC00AF1EE10FA03D29FED690A80ED81
:1038B000000AF0EE400A0022BDEEE00A414610EE9A
:1038C000100A00EE100AB8EEC00A30EEC08A01F00D
:1038D0009DFA04462E2108F804109FED5E1B9FED13
:1038E0005F0B00F051FBB0EE409AF0EE609A18EEDC
:1038F000100AFCF74BFD53EC192BFCF7C4FCFCF74A
:1039000058FD00EE100A08EB04010122BDEEC00ACA
:10391000491C10EE100A01F079FA4FF6FF742046A8
:10392000FEF772FD4F480188408881427CD91F27ED
:10393000CDE900474C4B4DA20F211020FDF7BAF8FE
:1039400000264FF00309FD028DE8600237234FF493
:10395000F07219463046FDF7EDF9CDE90047424BCC
:1039600052A25A211020FDF7A5F8CDE900473E4BA1
:1039700054A25A214FF48070FDF79CF84FF0010AD1
:10398000CDE9006A2B4604229221A520FDF7CAF852
:10399000514B52A28C21AA20CDE90045FDF78AF8AF
:1039A0004FF4917BA0234FF4B4728C2158460094BD
:1039B000FEF77AFE484B42468C215846CDE9004539
:1039C000FDF778F8CDE9006A2B460422922140F2F7
:1039D0007710FDF7A7F84FF4BE7A3F4B3FA28C213A
:1039E0005046CDE90045FDF765F8CDE90076F023B6
:1039F000AA2219466420CDF80890FDF79BF98DE8BE
:103A00006002F023524619464FF49B70FDF792F97D
:103A10008DE8600240F2591040F213130246CD21A6
:103A2000FDF788F92E4B00E007E0CDE900472DA215
:103A300040F227111020FDF73DF803B04046BDECE1
:103A4000048BBDE8F04F01F0B9B900001800002068
:103A500000000000000000000000F03F0000000037
:103A600000002440480000200000002055727A61C8
:103A7000647A656E6965207A61727A61647A616AD6
:103A80006163652074656D70657261747572612023
:103A90006F72617A20206F73776965746C656E69E7
:103AA000656D207720706F6B6F6A7500416B747560
:103AB000616C6E612074656D7065726174757261A0
:103AC000000000005A6164616E612074656D70656C
:103AD00072617475726100001000002043000000E4
:103AE00008000020506F77726F7400002DE9F047D6
:103AF00001202DED048B82B001F0E0F95D4C05460C
:103B000094ED000AB5EEC00AF1EE10FA03D29FED73
:103B10005A0A84ED000A0020FFF724FC5748007A77
:103B2000000643D55348564A083001881388994205
:103B30003CD240885288904238D2934236D9A1F183
:103B40002902A42A06D2A0F17902452A02D262688B
:103B5000012A2CD0642905D2B0F58C7F02D9626885
:103B6000022A29D0A1F16502B6EE002A2E279FED88
:103B7000451B9FED460B4FF6FF784FF4B47A4FF498
:103B800091764FF47849452A06D2A0F1DD02272A22
:103B900002D26268022A1AD0A1F23711452960D2F6
:103BA000CE3845285DD26068022815D059E0FFF76D
:103BB0006BFE0220606054E03648FEF7D0F8FFF755
:103BC000B3FC012060603348FEF7B8F849E0D4ED5B
:103BD000002A72EEC22A03E0D4ED002A72EE822A95
:103BE00000222946C4ED002ABDEEE22A12EE100A98
:103BF00002EE100AB8EEC22A32EEC28A01F006F9CD
:103C000004462F5500F0C0F9B0EE409AF0EE609AED
:103C100018EE100AFCF7BAFB53EC192BFCF733FB38
:103C2000FCF7C7FB00EE100A29190122BDEEC00AFD
:103C3000491C10EE100A01F0E9F84446A023524650
:103C40008C213046CDF80080FEF72EFDCDE90049ED
:103C5000114B2A468C213046FCF72CFFC820FDF77B
:103C60006FF902B02846BDEC048BBDE8F04701F0C7
:103C7000A5B800001800002000000000540000203B
:103C800048000020000000000000F03F000000009D
:103C900000002440480100201000002010B5FCF76F
:103CA00013FE002816D0CC20FCF772FE4420FCF74F
:103CB0006FFEFCF709FE00280CD0CC20FCF768FE54
:103CC000BE20FCF765FEFCF731FE0446FCF72EFE35
:103CD00044EA002010BD10B5806B0021C185C1846D
:103CE000FEF795FA10BD0168CA6822F49072CA60A6
:103CF00001684A6922F001024A61202180F83A10E5
:103D0000704710B590F83A10222901D0022010BD5A
:103D10008168B1F5805F11D00169002901681FD069
:103D2000496801F07F03816A4A1C82620B70C18D71
:103D3000491E0904090CC18518D02BE00269816A6B
:103D4000002A0268526805D0D2B20A80816A491CF2
:103D50008162ECE7C2F308020A80816A891CF7E7F6
:103D60004A68816A4B1C83620A70E0E70168CA688E
:103D700022F02002CA600168CA6822F48072CA6018
:103D800001684A6922F001024A61202180F83A1054
:103D9000FEF736FB002010BD2DE9F0410446006817
:103DA0000169E26821F44051114301612169A06871
:103DB000E26908436169114308432168CA6849F20E
:103DC0000C639A430243CA6020684169A26921F4E6
:103DD000407111434161E069192764253226B0F52D
:103DE000004F354A354920684FF0000806D0884218
:103DF00001D0904236D1FDF7DFFA35E0884201D09C
:103E0000904202D1FDF7D8FA01E0FDF7C5FA6168EA
:103E10004A18A0FB070148EB0803FCF7F1F901463B
:103E2000B0FBF5F00201B1FBF5F06FF01803584359
:103E300001EB800006EBC000B0FBF5F000F0F800ED
:103E400002EB4002B1FBF5F0584301EB800006EBBA
:103E5000C000B0FBF5F000F0070021681044886056
:103E6000BDE8F081FDF798FA61688B0F8A00A0FB2E
:103E70000701FCF7C5F90146B0FBF5F06FF0180239
:103E8000504301EB800006EB0010B0FBF5F000F0B2
:103E9000F002B1FBF5F002EB0012B1FBF5F06FF0B0
:103EA0001803584301EB800006EB0010B0FBF5F05F
:103EB00000F00F00D1E700000014014000100140A5
:103EC00090F83910212901D0022070478168B1F59E
:103ED000805F016A0BD04A1C026202680978516057
:103EE000C18C491E0904090CC1840ED017E0098851
:103EF0000268C1F30801516001690029016A02D01A
:103F0000491C0162ECE7891CFBE70168CA6822F0E2
:103F10008002CA600068C16841F04001C1600020B1
:103F2000704700000148FEF773B90000C801002087
:103F3000FEE703B401984100009850EAC12018BF81
:103F400004204A0D18BF40F0010040F2FF72B2EBAE
:103F5000515F08BF40F00200012808BF052002B0F1
:103F600070470907090E002804DB00F1E02080F803
:103F70000014704700F00F0000F1E02080F8141DDD
:103F800070470000000000002DE9F04D2DED040BFE
:103F90002DED0E8B96B0DDE92550279CDDF890A025
:103FA00025F0004624F00048BAF1000F14BF0121AB
:103FB000002101EB4502FC4953184A1093422AD3D1
:103FC000002814BF0123002303EB44030B44F749EB
:103FD0008B4220D358EA00019FEDF59B76D0DFF8A5
:103FE000D8B35D4503D1BAF1000F05D188E0BAF12D
:103FF000000F08BF002100D0012101EB450111F5A0
:10400000001F08D8002814BF0121002101EB440142
:1040100011F5001F0BD99DED261B9DED240B16B04D
:10402000BDEC0E8B04B0BDE8F04D00F069BE00277A
:10403000002DBCBFE149884521DAE1498845A8BF88
:1040400002271CDAC3451ADCDE4901EB285114298A
:1040500008DDC1F1340220FA02F101FA02F28242D3
:104060000DD108E058B9C1F1140228FA02F101FAA1
:1040700002F2424503D101F00101C1F1020756EA03
:104080000A0124D1002C22DA002D18BF022F01D002
:10409000012F0AD0022000F07FFE16B0BDEC0E8B7F
:1040A00004B0BDE8F04D00F013BE022000F074FE35
:1040B00000F00EFE51EC100B81F0004141EC100BB2
:1040C00016B0BDEC0E8B04B0BDE8F08D18E09FED8E
:1040D000BEAB9FEDBF8B002871D1B848804522D17F
:1040E00005F1804010F5801008BFBAF1000F07D02D
:1040F000B3450ADC002CA8BF9DED260BE0DA0DE0ED
:10410000B0EE490AF0EE690ADAE7002C06DA9DED16
:10411000260B51EC100B81F000416FE0AE48784463
:1041200090ED000BCCE7D8454DD1002C48DA2EB1EC
:1041300086423AD1BAF1000F42D126E0BAF1000F1F
:1041400013D0022000F028FE00F0F6FD8DED020BEA
:104150009DED240B8DED000B10EE900A039961F399
:104160001E0003909DED020BAAE78DED02AB9DEDC5
:10417000240B1AEE901A10EE900A8DED000B61F3ED
:104180001E0003909DED020B9AE78DED028B9DEDD5
:10419000240B18EE901A10EE900A8DED000B61F3CF
:1041A0001E0003909DED020B8AE709DA9DED240BBA
:1041B00051EC190B53EC102BFCF771FA1EE020E0C8
:1041C0009DED240B7CE786421BDAB4F1804F0DD0C5
:1041D000A4F10050B0F1FF5013D1002D11DB9DED83
:1041E000240B51EC100B00F09FFE07E09DED240B1B
:1041F00053EC102B51EC100B00F0C2BC41EC100B37
:104200005EE79DED240B51EC100B00F0CBFDBAF1F5
:10421000000FCDE90E0142D19FED710B46B3A6F11F
:10422000E040B0F17F600CD05E4538D1002D00DA5F
:10423000A7B3022F0CBF01204FF0FF30FCF795F819
:10424000DCE7002D01DD002C0DDA002D01DD002C56
:104250001FDB002D16DA002C14DB012F08BF9FEDA9
:10426000620B3FF42DAFB0EE4A0AF0EE6A0A27E780
:10427000022F18BF002D0CD0012F0AD1002DFFF600
:104280001FAF06E0002DB8BF002C08DA012F3FF465
:1042900017AFB0EE480AF0EE680A11E71BE0012004
:1042A00000EBE57050EA070115D0791EB0EE498A9F
:1042B000F0EE698A084308BF9FED4D8B4E480025FC
:1042C000804570DD4D494E48884514DDB0420DDB18
:1042D000002C19DB2FE0012000F05EFD16B0BDECD4
:1042E0000E8B04B0BDE8F04D00F016BDB34502DC06
:1042F000002C09DC1FE0864202DA002C1BDA03E006
:104300005E452BDD002C16DD022000F045FD00F09F
:1043100013FD8DED020B53EC1A2B51EC180BFBF730
:10432000B2FFCDE900010399019861F31E000390EB
:104330009DED020BC4E6022000F02EFD00F00CFD06
:1043400010EE901A18EE900A8DED020B8DED008B99
:1043500061F31E0003909DED020BB1E69DED0E0B87
:1043600053EC192B51EC100BFCF793F99FED260B36
:10437000CDE9080153EC102B9DED080B51EC100B0F
:10438000FBF781FF9FED221B53EC112BFCF784F907
:104390009DED081B53EC112BFBF775FF9FED1E1BCA
:1043A00053EC112B3CE08CE0FFFF1F00FFFF0F00E0
:1043B000000000000000F03F0000F03F0000F07F30
:1043C0000000404301FCFFFF000000000000F07F00
:1043D0000000000000000000864400000000000013
:1043E0000000000000000080000000000000F0FF5E
:1043F000000000000000F0BF0000E0410000F043BA
:10440000FFFFEF3F00000000000000000000D03F71
:10441000555555555555D53F000000000000E03F6B
:10442000FCF73AF99DED080B41EC1A0B53EC102BFD
:1044300051EC100BFBF727FF53EC1A2BFBF723FF74
:1044400041EC1A0B9FEDFE0B53EC102B9DED080B6E
:1044500051EC100BFBF717FF41EC1B0B9FEDFA0B18
:1044600051EC1A0B53EC102BFBF70DFF41EC1A0B20
:104470009FEDF70B53EC102B9DED080B51EC100B3F
:10448000FBF701FF53EC1A2BFCF703F941EC1A0B75
:1044900051EC1B0B53EC1A2BFCF75AF80690CDE9A4
:1044A00006519DED060B53EC1B2B51EC100BFCF74A
:1044B000F0F853EC1A2BFCF7EFF841EC100B00F07E
:1044C000A1B90020B6F5801F0EDA9FEDE30B53EC87
:1044D000102B9DED0E0B51EC100BFBF7D4FECDE92C
:1044E0000E016FF034000E4600EB2650A0F2FF37AD
:1044F000C6F31300DA4940F07F6646F04056884222
:10450000D8BF002408DDD7498142C8BF012403DC9D
:104510000024A6F580167F1CD348784400EBC40025
:104520000F9690ED00CB9DED0E0B53EC1C2B51EC38
:10453000100BFCF7AEF89DED0E0B41EC1B0B53EC92
:104540001C2B51EC100BFCF703F841EC100B51EC59
:10455000190B53EC102BFCF7A2F841EC1D0B51EC9E
:104560001B0B53EC1D2BFBF78EFE41EC1A0BBF48C7
:104570008DED10AB7844109590ED000B4FF000508E
:1045800040EA660000EB84408DED080B00F500204A
:1045900009909DED080B53EC1C2B51EC100BFCF714
:1045A00078F89DED0E1B53EC112BFCF775F841ECE0
:1045B000100B53EC102B9DED100B51EC100BFBF777
:1045C00062FE9DED080B41EC1C0B53EC102B9DED96
:1045D000100B51EC100BFBF756FE53EC1B2BFCF7AA
:1045E0005BF853EC1C2BFCF754F853EC1D2BFBF73A
:1045F0004AFE41EC1C0B53EC1A2B51EC1A0BFBF747
:1046000042FE41EC1B0B9A480621B0EE4B0AF0EE3D
:104610006B0A784400F0E0FAB0EE401AF0EE601A4F
:10462000B0EE41DAF0EE61DA53EC1B2B51EC1B0BD0
:10463000FBF729FE53EC1D2BFBF725FE9DED100B20
:1046400041EC1B0B53EC1A2B51EC100BFBF780FFCA
:1046500053EC1C2BFBF717FE53EC1B2BFBF778FFDF
:104660009DED100B41EC1B0B53EC102B51EC100B80
:10467000FBF709FE41EC1D0B9FED7FEB53EC1E2B6E
:10468000FBF766FF53EC1B2BFBF762FF0890CDE9AD
:1046900008519DED080B53EC1E2B51EC100BFBF752
:1046A000F8FF53EC1D2BFBF7F4FF53EC1B2BFBF730
:1046B000F3FF9DED080B41EC1D0B53EC102B9DED12
:1046C000100B51EC100BFBF7DEFD41EC1B0B53EC18
:1046D0001A2B51EC1D0BFBF7D6FD9DED080B41ECA1
:1046E0001A0B53EC102B51EC1C0BFBF7CCFD53ECCD
:1046F0001A2BFBF72DFF41EC1A0B51EC1B0B53EC63
:104700001A2BFBF725FF0C90CDE90C519DED0C0BFE
:1047100053EC1B2B51EC100BFBF7BBFF53EC1A2B8C
:10472000FBF7BAFF41EC1B0B9FED550B53EC102B25
:104730009DED0C0B51EC100BFBF7A5FD41EC1A0B9A
:104740009FED510B51EC1B0B53EC102BFBF79BFD1A
:1047500041EC1B0B9FED4E0B53EC102B9DED0C0B06
:1047600051EC100BFBF78FFD53EC1B2BFBF7F0FE0E
:1047700041EC100B4848784400EBC40090ED001B5E
:1047800051EC100B53EC112BFBF7E2FE41EC1B0B31
:104790003846FBF7EAFDCDE9080153EC1B2B51EC41
:1047A0001A0BFBF7D5FE41EC100B3C48784400EBAC
:1047B000C40090ED00CB51EC100B53EC1C2BFBF71D
:1047C000C7FE9DED081B53EC112BFBF7C1FE0690B5
:1047D000CDE906519DED080B53EC102B9DED060B1A
:1047E00051EC100BFBF755FF53EC1C2BFBF751FF63
:1047F00053EC1A2BFBF74DFF53EC1B2BFBF74CFF35
:1048000041EC100B9DED261B53EC102B8DED001B86
:1048100000959DED260B51EC100BFBF734FD9DED43
:10482000000B41EC1A0B53EC102B9DED260B51ECB9
:10483000100BFBF72EFF9DED061B53EC112B2FE009
:10484000000000604715F73FFE822B654715F73FD4
:1048500044DF5DF80BAE543E000000000000404312
:104860008E9803007AB60B00024000003040000032
:104870003A3F000000000000000000000000084077
:10488000000000E009C7EE3FFD033ADC09C7EE3F38
:10489000F5015B14E02F3EBEC63D0000803D0000E8
:1048A000FBF7F1FC53EC1A2BFBF752FE9DED060BC8
:1048B00041EC1A0B53EC102B9DED000B51EC100B3F
:1048C000FBF7E1FCCDE90C019DED0C0B51EC1A0B53
:1048D00053EC102BFBF73CFECDE902010C46AA4934
:1048E0008C422FDB611A084318D19DED0C0B53EC61
:1048F000102B9DED020B51EC100BFBF7CAFE41ECA7
:104900001B0B9FEDA30B51EC1A0B53EC102BFBF779
:104910001FFE53EC1B2BFBF799FF2DD2022000F05A
:104920003BFA00F009FA10EE901A18EE900A8DED9D
:10493000020B8DED008B61F31E0003909DED020BC9
:10494000FFF7BEBB944A24F00041914214D393492F
:10495000214408437FF4EFAC9DED0C0B53EC102B7E
:104960009DED020B51EC100BFBF793FE53EC1A2B51
:10497000FBF76CFF7FF6DFAC24F000408849894AE2
:10498000002601EB205182422BDA481C4FF48011A3
:1049900021FA00F02044844AC0F30A517A44A1F27B
:1049A000FF3192ED000B814A8DED080BCA4020EAE1
:1049B0000202C0F3130040F48010C1F1140120FA88
:1049C00001F60992002CB8BF76429DED080B53EC1E
:1049D000102B9DED0C0B51EC100BFBF75AFECDE9A3
:1049E0000C019DED0C0B51EC1A0B53EC102BFBF74B
:1049F000AFFD9FED6F0B0890CDE9085153EC102BE4
:104A00009DED080B51EC100BFBF73DFC41EC1B0B33
:104A10009FED690B53EC102B9DED080B51EC100B27
:104A2000FBF731FC9DED0C0B41EC1C0B53EC102BF8
:104A30009DED080B51EC100BFBF72BFE53EC1A2BE2
:104A4000FBF72AFE9FED5E1B53EC112BFBF71BFCC3
:104A500053EC1C2BFBF77CFD41EC1A0B51EC1B0BB0
:104A600053EC1A2BFBF774FDCDE902019DED020B0F
:104A700053EC1B2B51EC100BFBF70BFE53EC1A2BDA
:104A8000FBF70AFE9DED020B41EC1A0B53EC102BC9
:104A900051EC100BFBF7F7FBCDE908014A489DEDFF
:104AA000080B0521784400F097F89DED081B51ECA8
:104AB000100B53EC112BFBF7E6FB9DED021B53ECA7
:104AC000112BFBF7E9FDCDE906019DED020B53EC3F
:104AD0001A2B51EC100BFBF7D6FB53EC1A2BFBF700
:104AE00037FD9FED3B0B41EC1A0B53EC102B9DED6A
:104AF000060B51EC100BFBF7CCFD9DED060B41ECCA
:104B00001B0B53EC102B9DED020B51EC100BFBF724
:104B1000BAFB53EC1B2BFBF7C2FD53EC1A2BFBF734
:104B2000B8FD9DED021B53EC112BFBF7B2FD53ECCE
:104B3000192BFBF7B1FDCDE9020101EB0650011580
:104B40000029C8BF039015DC9DED020B324651ECE5
:104B5000100BFBF713FEFFF7ECF9042808BF00F079
:104B6000FBF832469DED020B51EC100BFBF706FEF5
:104B7000CDE902019DED020B51EC180B53EC102B0B
:104B8000FBF781FBFFF73ABB0000904000000000FC
:104B9000FE822B654715973C00CC904000346F3F58
:104BA00001FCFFFF0000E03F083C0000FFFF0F009A
:104BB00000000000432EE63F396CA80C615C20BE6B
:104BC000EF39FAFE422EE63FD83A0000000000001E
:104BD000000000000000004070B504462DED028B7F
:104BE0004D1E00EBC500B0EE408AF0EE608A90EDFD
:104BF000000B35F0060017D053EC182B51EC100BBE
:104C0000FBF741FB41EC100B6D1E04EBC50090ED72
:104C1000001B51EC100B53EC112BFBF799FC41ECF2
:104C2000100B35F00600E7D1022D36D0042D1CD034
:104C3000062D1CBFBDEC028B70BD53EC182B51EC44
:104C4000100BFBF720FB94ED0A1B53EC112BFBF729
:104C50007FFC53EC182BFBF716FB94ED081B53EC71
:104C6000112BFBF775FC41EC100B53EC182B51EC9E
:104C7000100BFBF708FB94ED061B53EC112BFBF715
:104C800067FC53EC182BFBF7FEFA94ED040B53EC86
:104C9000102BFBF75DFC41EC100B53EC182B51EC87
:104CA000100BFBF7F0FA94ED021B53EC112BFBF702
:104CB0004FFC53EC182BFBF7E6FA94ED001B53EC7A
:104CC000112BFBF745FCBDEC028B41EC100B70BDCA
:104CD0009FED070B10B553EC102B9FED070B51EC1C
:104CE000100BFBF7DCFC41EC100B10BD00000000CA
:104CF0000000000000000000000000000000F03F85
:104D000010B553EC112B51EC100BFBF721FC41ECCF
:104D1000100B10BD000000009FED050B10B553EC0B
:104D2000102B51EC100BFBF7BAFC41EC100B10BD33
:104D300000000000000000009FED050B10B553ECD3
:104D4000102B51EC100BFBF79EFA41EC100B10BD31
:104D500000000000000000709FED050B10B553EC43
:104D6000102B51EC100BFBF78EFA41EC100B10BD21
:104D7000000000000000001002E008C8121F08C177
:104D8000002AFAD170477047002001E001C1121FCC
:104D9000002AFBD1704700000149086070470000FD
:104DA0004400002082B0CDE9000121F000400190D4
:104DB0009DED000B02B051EC100B704710B50028B0
:104DC00021D0114B0022001F196803E0814203D853
:104DD0000A4649680029F9D152B11368841A9C42E5
:104DE00004D1006818441060104602E0506000E0F2
:104DF000186039B102680B1A934203D10B681A4448
:104E000002604968416010BD3C00002070B5044656
:104E1000002003465FF00A0594FBF5F605FB1646F5
:104E200094FBF5F430360E54401C002CF4D13024A1
:104E3000904202DA0C54401CFAE7421E05E0CC5CBA
:104E40008D5CCD548C54521E5B1C9342F7DB0022C8
:104E50000A5470BDFCF772F9FDF796FFFDF732FDBD
:104E6000FDF788FEFDF732FEFDF7AEFDFDF748FECB
:104E7000FDF710FEFDF7CCFD0D48FCF75FFF0D4878
:104E8000FCF75CFF00210C48FDF77AF906244FF48B
:104E90007A712046FDF7C4FA2046FEF7A5F9FEF721
:104EA0003BF9FEF741FB00BFFEF720FEFCE70000E8
:104EB000880100204801002008010020F0B50B30D7
:104EC000154D20F007010024144A0FE003688B42BF
:104ED0000BD38B4205D95E1A43184768C3E90067B4
:104EE00000E04368136002C004E0021D106800285F
:104EF000ECD12046002802D1286808B10020F0BD7E
:104F0000064A07481060074A121A22F00702C0E951
:104F1000002401202860D7E7400000203C0000204A
:104F20000C0200200804002000B52DED048B83B096
:104F300041EC190BFBF739FC41EC180B18EE100A89
:104F400018EE901A8DED008B002818BF0120084341
:104F500020F00040C0F17F6000F1E040C00F14D0AD
:104F600019EE101A19EE900A8DED009B002918BF5A
:104F70000121084320F00040C0F17F6000F1E040D3
:104F8000C00F04BF0120FFF707FF51EC180B03B05F
:104F9000BDEC048B00BD000000000000000000001C
:104FA0000000000000000000000000000000000001
:104FB00000000000000000000C000C000C000C00C1
:104FC0000C000C000C000C0000000C0000000000A5
:104FD000000000000000000000001DC01DC008808F
:104FE00008800880000000000000000000000000B1
:104FF00000000000000000000D800D800D800D807D
:105000003FC01B003FC01B001B001B001B0000001B
:1050100000000000000004001F8031803180380053
:105020001E000F000380318031803F000400040027
:10503000000000000000000018002400240018C038
:1050400007801E0031800240024001800000000005
:10505000000000000000000000000F001800180011
:1050600018000C001D80370033001D800000000078
:105070000000000000000000000007000700020020
:10508000020002000000000000000000000000001C
:1050900000000000000000000300030006000E00F6
:1050A0000C000C000C000C000E00060003000300B6
:1050B0000000000000000000180018000C000600AE
:1050C000060006000600060006000C001C00180082
:1050D0000000000000000000060006003FC03FC0C6
:1050E0000F001F8019800000000000000000000079
:1050F00000000000000000000000000004000400A8
:1051000004003F80040004000400000000000000D0
:10511000000000000000000000000000000000008F
:105120000000000000000000060004000C00080061
:105130000800000000000000000000000000000067
:1051400000003F80000000000000000000000000A0
:10515000000000000000000000000000000000004F
:1051600000000000000000000C000C000000000027
:1051700000000000000000C000C0018001800300AA
:10518000030006000C000C0018001800300030006E
:1051900000000000000000000E001B003180318084
:1051A00031803180318031801B000E000000000012
:1051B000000000000000000006003E00060006009F
:1051C000060006000600060006003FC000000000C2
:1051D00000000000000000000F00198031803180C5
:1051E000030006000C00180030003F8000000000A3
:1051F00000000000000000003F006180018003000B
:105200001F0003800180018061803F0000000000DA
:105210000000000000000000070007000F000B0066
:105220001B00130033003F8003000F8000000000CC
:1052300000000000000000001F8018001800180087
:105240001F0011800180018021801F0000000000EC
:10525000000000000000000007801C001800300063
:10526000370039803180318019800F000000000044
:1052700000000000000000007F0043000300060063
:105280000600060006000C000C000C0000000000E8
:1052900000000000000000001F00318031803180DC
:1052A0001F0031803180318031801F0000000000FC
:1052B00000000000000000001E003300318031803B
:1052C00033801D800180030007003C0000000000C7
:1052D00000000000000000000000000000000C00C2
:1052E0000C000000000000000C000C00000000009A
:1052F00000000000000000000000000000000300AB
:105300000300000000000000060004000800080080
:105310000000000000000000000000C003000400C6
:105320001800600018000400030000C00000000026
:10533000000000000000000000000000000000006D
:105340007FC000007FC000000000000000000000DF
:1053500000000000000000000000600018000400D1
:10536000030000C0030004001800600000000000FB
:10537000000000000000000000001F0031803180AC
:10538000018007000C000C0000000C000000000071
:1053900000000000000000000E00110021002100AC
:1053A0002700290029002700200011000E0000001E
:1053B000000000000000000000003F000F00090096
:1053C000198019801F8030C030C079E000000000D3
:1053D000000000000000000000007F0031803180EC
:1053E00031803F003180318031807F00000000003B
:1053F000000000000000000000001F4030C06040BE
:10540000600060006000604030801F00000000000D
:10541000000000000000000000007F00318030C06C
:1054200030C030C030C030C031807F00000000008C
:10543000000000000000000000007F80308030800D
:1054400032003E003200308030807F80000000005B
:10545000000000000000000000007FC0304030402D
:1054600032003E003200300030007C0000000000BE
:10547000000000000000000000001E8031806080FD
:105480006000600067C0618031801F000000000084
:10549000000000000000000000007BC0318031806F
:1054A00031803F803180318031807BC0000000003E
:1054B000000000000000000000003FC006000600E1
:1054C000060006000600060006003FC000000000BF
:1054D000000000000000000000001FC003000300E7
:1054E000030003006300630063003E00000000004F
:1054F000000000000000000000007BC0318033008D
:1055000036003C003E003300318079C000000000CE
:10551000000000000000000000007E0018001800DD
:10552000180018001840184018407FC00000000004
:1055300000000000000000000000E0E060C071C05A
:105540007BC06AC06EC064C060C0FBE000000000A9
:105550000000000000000000000073C031803980AE
:105560003D803580378033803180798000000000B5
:10557000000000000000000000001F00318060C03B
:1055800060C060C060C060C031801F0000000000CB
:10559000000000000000000000007F00318031802A
:1055A000318031803F00300030007E00000000007C
:1055B000000000000000000000001F00318060C0FB
:1055C00060C060C060C060C031801F000CC01F8020
:1055D000000000000000000000007F0031803180EA
:1055E00031803E003300318031807CE000000000DB
:1055F000000000000000000000001F8031803180AA
:1056000038001F000380318031803F00000000001F
:10561000000000000000000000007F804C804C80F3
:105620004C800C000C000C000C003F00000000003F
:10563000000000000000000000007BC031803180CD
:10564000318031803180318031801F0000000000C6
:10565000000000000000000000007BC031803180AD
:105660001B001B001B000A000E000E0000000000C3
:1056700000000000000000000000FBE060C064C00B
:105680006EC06EC02A803B803B80318000000000ED
:10569000000000000000000000007BC031801B0003
:1056A0000E000E000E001B0031807BC000000000C9
:1056B0000000000000000000000079E030C0198008
:1056C0000F0006000600060006001F800000000014
:1056D000000000000000000000003F802180230047
:1056E000060004000C00188030803F80000000009D
:1056F0000000000000000000078006000600060011
:1057000006000600060006000600060006000780E8
:1057100000000000000030003000180018000C00ED
:105720000C000600030003000180018000C000C0DF
:1057300000000000000000001E0006000600060039
:1057400006000600060006000600060006001E0011
:1057500000000000000004000A000A001100208080
:105760002080000000000000000000000000000099
:105770000000000000000000000000000000000029
:105780000000000000000000000000000000000019
:1057900000000000FFE0080004000200000000001C
:1057A00000000000000000000000000000000000F9
:1057B00000000000000000000000000000001F00CA
:1057C000018001801F80318033801DC000000000F7
:1057D00000000000000000007000300030003700C2
:1057E000398030C030C030C0398077000000000000
:1057F00000000000000000000000000000001E800B
:10580000318060806000608031801F0000000000F7
:1058100000000000000000000380018001801D8066
:10582000338061806180618033801DC00000000092
:1058300000000000000000000000000000001F0049
:10584000318060C07FC0600030C01F800000000059
:10585000000000000000000007E00C000C003F808A
:105860000C000C000C000C000C003F80000000003D
:1058700000000000000000000000000000001DC04B
:10588000338061806180618033801D800180018070
:105890001F000000000000007000300030003700E2
:1058A000398031803180318031807BC00000000040
:1058B00000000000000000000600060000001E00BE
:1058C000060006000600060006003FC000000000BB
:1058D00000000000000000000600060000003F007D
:1058E00003000300030003000300030003000300A0
:1058F0003E000000000000007000300030003780E3
:1059000036003C003C003600330077C00000000049
:1059100000000000000000001E0006000600060057
:10592000060006000600060006003FC0000000005A
:1059300000000000000000000000000000007F8068
:1059400036C036C036C036C036C076E00000000033
:1059500000000000000000000000000000007700D0
:10596000398031803180318031807BC0000000007F
:1059700000000000000000000000000000001F0008
:10598000318060C060C060C031801F000000000036
:105990000000000000000000000000000000770090
:1059A000398030C030C030C039803700300030001E
:1059B0007C000000000000000000000000001DC08E
:1059C000338061806180618033801D80018001802F
:1059D00007C00000000000000000000000007B8005
:1059E0001CC018001800180018007F0000000000FC
:1059F00000000000000000000000000000001F8008
:105A000031803C001F00038031803F000000000017
:105A100000000000000000001800180018007F00BF
:105A2000180018001800180018800F00000000006F
:105A30000000000000000000000000000000738073
:105A4000318031803180318033801DC00000000002
:105A500000000000000000000000000000007BC00B
:105A6000318031801B001B000E000E000000000082
:105A70000000000000000000000000000000F1E055
:105A800060C064C06EC03B803B803180000000007D
:105A900000000000000000000000000000007BC0CB
:105AA0001B000E000E000E001B007BC0000000005B
:105AB000000000000000000000000000000079E08D
:105AC00030C0198019800B000F00060006000C0082
:105AD0003E000000000000000000000000003F80C9
